:020000040800F2
:100000002008002001010008B10600086906000868
:10001000AD0600080904000879110008000000007E
:100020000000000000000000000000004D0D00086E
:100030000D04000800000000090D0008F50E00087E
:100040001B0100081B0100081B0100081B01000820
:100050001B0100081B0100081B0100081B01000810
:100060001B0100081B0100081B0100081B01000800
:100070001B0100081B0100081B0100081B010008F0
:100080001B0100081B0100081B0100081B010008E0
:100090001B0100081B0100081B0100081B010008D0
:1000A0001B0100081B0100081B0100081B010008C0
:1000B0001B0100081B0100081B0100081B010008B0
:1000C0001B0100081B0100081B0100081B010008A0
:1000D0001B0100081B0100081B0100081B01000890
:1000E0001B0100081B0100081B010008DFF80CD0F1
:1000F00000F078F9004800479D1100082008002012
:100100000648804706480047FEE7FEE7FEE7FEE7B1
:10011000FEE7FEE7FEE7FEE7FEE7FEE7F90E000872
:10012000ED000008F0B480EA0102D40F4200B2EB07
:10013000410F02D20246084611464A0042D0C30D82
:10014000DDB2C1F3C752AD1A202D35DAC1F3160165
:1001500041F4000204B15242C5F1200602FA06F150
:100160002A411044B3EBD05F23D0C4B1012DA0EBE2
:10017000C35009DCF0BC4FF0004202EAC352DBB2CC
:1001800000F5000000F0FFB8400000F1807000EBC7
:10019000C350A0F1807040EAD170490009E04908DD
:1001A00041EAC071A0EBC35000F50000400800EB2D
:1001B000C350F0BC00F0DEB86142012202EB410105
:1001C000001BF6E7F0BC704781F00041AAE780F021
:1001D0000040A7E780EA010210B502F000434000AA
:1001E00022D04A001FD0010E01EB1261C0F356006D
:1001F000C2F3560240F4000042F40002A0FB0220C9
:1002000000047F39140400D0401C50EA124001D48D
:100210004000491EC2B20C0604EBD010401C40083E
:10022000802A02D003E0002010BD20F00100002948
:1002300000DA0020184310BD30B480EA010202F059
:10024000004530F0004221F0004013D090B1C30DC2
:10025000D40DC2F31601C0F31600E41A41F40001F4
:1002600040F400027D34914201D3641C00E0490057
:10027000002C02DA30BC002070474FF4000000234D
:10028000914201D3891A034340084FEA4101F7D153
:1002900051B1914202D14FF0004105E002D24FF03E
:1002A000010101E06FF0010103EBC450284430BCB0
:1002B00000F060B8C10F80EAE0700844CA079623D6
:1002C000002100F060B820F00040C10DC0F316001E
:1002D00040F400007F2901DA00207047962903DCF2
:1002E000C1F19601C840704796398840704700F0C8
:1002F000004230F000400AD0C10D01F56071C0F33A
:10030000160042EA0151C20840071143704700201D
:100310000146704730B5041E71F1000404DB4FF054
:100320000044404264EB0101141E73F1000405DB3C
:100330001C464FF00043524263EB04038B4208BF5C
:10034000824230BD30B5041E71F1000404DB4FF071
:100350000044404264EB0101141E73F1000405DB0C
:100360001C464FF00043524263EB0403994208BF1E
:10037000904230BD0029A8BF7047401C490008BF0B
:1003800020F00100704710B4B0FA80FC00FA0CF0C5
:1003900050EA010404BF10BC704749B1CCF12004FD
:1003A00021FA04F411FA0CF118BF0121214308438A
:1003B000A3EB0C01CB1D4FEA00614FEA102042BFB6
:1003C000002010BC704700EBC35010440029A4BFAC
:1003D00010BC7047401C490008BF20F0010010BC51
:1003E00070470000064C074D06E0E06840F001034E
:1003F00094E8070098471034AC42F6D3FFF77AFE32
:10040000B81E0008D81E000800BFFEE7704700B500
:10041000034603E04FF47A7000F011F8181EA3F1C0
:100420000103F7D100BD10B5044603E04FF47A7024
:10043000FFF7EDFF201EA4F10104F7D110BD00EB82
:10044000C001C9004FF0E0225161002191610521F6
:10045000116100BF4FF0E021096901F480310029EA
:10046000F8D004214FF0E022116170472DE9F041EE
:10047000024600250026002000230024002791F8D2
:1004800003C00CF00F0591F803C00CF0100CBCF188
:10049000000F03D091F802C04CEA050591F800C0A6
:1004A000BCF1000F31D0146800202BE04FF0010C9C
:1004B0000CFA00F3B1F800C00CEA03069E4220D10A
:1004C00083004FF00F0C0CFA03F7BC4305FA03FC52
:1004D0004CEA040491F803C0BCF1280F06D14FF098
:1004E000010C0CFA00FCC2F814C00AE091F803C039
:1004F000BCF1480F05D14FF0010C0CFA00FCC2F81A
:1005000010C0401C0828D1D31460B1F800C0BCF161
:10051000FF0F34DD546800202EE000F1080C4FF08E
:10052000010808FA0CF3B1F800C00CEA03069E4279
:1005300021D183004FF00F0C0CFA03F7BC4305FAEE
:1005400003FC4CEA040491F803C0BCF1280F05D168
:1005500000F1080C08FA0CF8C2F8148091F803C0F6
:10056000BCF1480F07D100F1080C4FF0010808FA60
:100570000CF8C2F81080401C0828CED35460BDE8A7
:10058000F0810246002093680B400BB1012000E08F
:100590000020704741617047016170470AB10161F5
:1005A00000E041617047000008B50121042000F01F
:1005B000BDFB10208DF8030003208DF80200012000
:1005C000ADF8000069460748FFF750FF0220ADF87C
:1005D000000048208DF8030069460248FFF746FFF7
:1005E00008BD00000008014070B5002401211D482D
:1005F000FFF7D0FF0120FFF722FF00BF02211948BB
:10060000FFF7BFFF0028F9D1002516E001211548AA
:10061000FFF7C2FF0120FFF712FF6400012111481C
:10062000FFF7B8FF0120FFF70AFF02210D48FFF78F
:10063000A8FF00B1641C681CC5B2182DE6DB0121BF
:100640000848FFF7A9FF0120FFF7F9FE84F4000432
:1006500001210448FFF79EFF0120FFF7F0FE20462E
:1006600070BD00000008014000BFFEE708B5012191
:10067000042000F05BFB0420ADF800008DF80300BF
:1006800003208DF8020069460148FFF7EFFE08BD20
:100690000008014010B504210348FFF772FF08B9B4
:1006A000012010BD0020FCE70008014000BFFEE76C
:1006B0007047000000200CE0002106E00022064BFD
:1006C00003EBC0135A544A1CD1B28029F6DB421CFA
:1006D000D0B20828F0DB7047200000202DE9F0435D
:1006E00004460D4616461F467F2C01DDBDE8F0830B
:1006F0003F2D00DDFAE7A119802902DDC4F1800158
:10070000CEB2E919402902DDC5F14001CFB2284639
:1007100030E0234629E04FEAE07C00EB5C7C4FEAC6
:10072000EC0CDFF85C8008EBCC1C1CF803C0024624
:100730004FEAE07800EB58784FEAE808A0EBC809E8
:100740004FF0010808FA09F82CEA080C01464FEAB4
:10075000E07800EB58784FEAE808DFF8249009EBDE
:10076000C81808F803C0591CCBB2A1199942D2DCB1
:10077000411CC8B2E9198142CBDC00BFB6E70000DA
:100780002000002038B5002406E0002500E06D1CA4
:10079000B5F57A7FFBD3641CB4F57A7FF5D30121DC
:1007A000082000F0C3FA10208DF8030003208DF814
:1007B00002004FF48070ADF8000069460848FFF76A
:1007C00055FE4FF40070ADF8000069460448FFF78D
:1007D0004DFE012000F0B8F9012000F0C1F938BD4C
:1007E000000C014070B50546002411E08021214134
:1007F000294009B1012100E00021084600F0B0F9CC
:10080000012000F0A1F9002000F09EF9601CC4B2A4
:10081000082CEBDB012000F097F9002000F094F9A0
:1008200070BD10B5012000F09BF9012000F08CF99B
:10083000002000F095F9002000F086F910BD10B5F9
:10084000002000F08DF9012000F07EF9012000F079
:1008500087F910BD10B5FFF795FFAE2000F08CF9B9
:10086000D52000F089F9802000F086F9A82000F05A
:1008700083F93F2000F080F9D32000F07DF90020BB
:1008800000F07AF9402000F077F9A12000F074F927
:10089000C82000F071F9DA2000F06EF9122000F0A3
:1008A0006BF9812000F068F9CF2000F065F9D920BC
:1008B00000F062F9F12000F05FF9DB2000F05CF954
:1008C000302000F059F9A42000F056F9A62000F0DD
:1008D00053F98D2000F050F9142000F04DF9AF20AD
:1008E00000F04AF9FFF7E6FE00F01AF910BD10B566
:1008F0000246012000E050430B1EA1F10101FAD194
:1009000010BD70B505460C4645F0B00000F034F956
:10091000102141EA141000F02FF904F00F0000F04C
:100920002BF970BDF8B506460F4614461D46082D36
:100930000CD1A4F120000E4901EB00101023082275
:1009400039460090304600F017F80FE0062D0DD123
:10095000A4F1200000EB4000064901EB4000082311
:10096000062239460090304600F006F8F8BD000037
:10097000C0130008B01900082DE9F04707460C46DF
:1009800090469946DDF820A07F2F01DDBDE8F08775
:100990003F2C00DDFAE74B46424621463846FFF73A
:1009A0009DFE002570E0002669E0B8197F2800DD73
:1009B00067E0E11704EB517105EBE101072900DD68
:1009C000E4E72046E21704EB527205EBE202344BF7
:1009D00003EBC212BB19D25C2146E31704EB53733D
:1009E000DB10A4EBC30305FB086C1AF80CC00CFA6F
:1009F00003FC42EA0C02E31704EB537305EBE30339
:100A0000DFF89CC00CEBC31307EB060C03F80C20BB
:100A1000E11704EB517105EBE101491C072900DDE9
:100A20002BE02046E21704EB527205EBE202521C67
:100A30001B4B03EBC212BB19D25C2146E31704EB3C
:100A40005373DB10A4EBC303C3F1080305FB086C6D
:100A50001AF80CC04CFA03FC42EA0C02E31704EB50
:100A6000537305EBE3035B1CDFF834C00CEBC313DB
:100A700007EB060C03F80C2000BF701CC6B24645FD
:100A800093DB00BF681CC5B2A9F10100C11700EBE0
:100A90005171012202EBE101A94284DC00BF75E73C
:100AA000200000202DE9F0470646894617461D46DE
:100AB000DDF82080002417E0281B411E0A20FFF7E4
:100AC00016FFB7FBF0F00A21B0FBF1F201FB1200B8
:100AD00000F1300A04FB0861C8B243465246494659
:100AE000FFF720FF601CC4B2AC42E5DBBDE8F08735
:100AF0002DE9F0410646884615461F46002409E0C8
:100B00002A5D04FB0761C8B23B464146FFF70AFF76
:100B1000601CC4B2285D0028F2D1BDE8F08100005D
:100B200010B500240BE000212046FFF7EAFE05493E
:100B300001EBC410802100F02FF8601CC4B2082C17
:100B4000F1DB10BD2000002010B5044622464FF412
:100B500080710248FFF722FD10BD0000000C01402B
:100B600010B5044622464FF400710248FFF716FD07
:100B700010BD0000000C014010B50446FFF751FE07
:100B80007820FFF72FFE0020FFF72CFE2046FFF70E
:100B900029FEFFF754FE10BD70B505460E46FFF75F
:100BA00040FE7820FFF71EFE4020FFF71BFE0024CA
:100BB00004E0285DFFF716FE601CC4B2B442F8DB07
:100BC000FFF73DFE70BD000010B504462146024807
:100BD00000F07CFA10BD00000004004010B504468F
:100BE0002146024800F072FA10BD000000080040E3
:100BF00010B504462146024800F06AFA10BD000014
:100C00000008004000B589B00121084600F07EF8D8
:100C10000121022000F07AF80121042000F076F88A
:100C20000121042000F082F80121082000F07EF864
:100C300018208DF82300C820ADF8200003208DF87F
:100C4000220008A92C48FFF711FCC020ADF82000B5
:100C500008A92A48FFF70AFC4FF0804000F088F905
:100C6000274800F085F9274800F082F90020ADF808
:100C70001A00ADF8160044F61F60ADF818004720C2
:100C8000ADF8140000208DF81C0005A94FF080403D
:100C900000F020FA05A91A4800F01CFA05A9194825
:100CA00000F018FA01A800F007FA6020ADF804007F
:100CB0000020ADF80C000120ADF806000020ADF8D2
:100CC0000A0001A90F4800F0A5F901A90C4800F09D
:100CD00055F901A90B4800F051F90121880700F0EE
:100CE0003BF90121064800F037F90121054800F0E1
:100CF00033F909B000BD000000080140000C0140BC
:100D000000040040000800407047000029B1064A76
:100D1000D2690243044BDA6104E0034AD269824398
:100D2000014BDA61704700000010024029B1064A09
:100D300092690243044B9A6104E0034A9269824338
:100D4000014B9A617047000000100240704700009C
:100D50002DE9F04104460A492046FFF76DFA804626
:100D60000849FFF737FA07460749FFF7DBF9064658
:100D7000FFF7A9FA85B22846FFF726FFBDE8F08104
:100D8000000034430000FA440000FA432DE9F0412A
:100D900004460A492046FFF74FFA80460849FFF704
:100DA00019FA07460749FFF7BDF90646FFF78BFA20
:100DB00085B22846FFF712FFBDE8F08100003443FA
:100DC0000000FA440000FA432DE9F04104460A49C4
:100DD0002046FFF731FA80460849FFF7FBF907463E
:100DE0000749FFF79FF90646FFF76DFA85B22846D7
:100DF000FFF7FEFEBDE8F081000034430000FA4436
:100E00000000FA4310B5FFF7FDFE10BD10B500F06D
:100E100001F810BD0CB50020019000903348006827
:100E200040F480303149086000BF3048006800F469
:100E3000003000900198401C0190009818B901986A
:100E4000B0F5A06FF1D12948006800F4003010B16E
:100E50000120009001E0002000900098012843D17B
:100E60002348006840F010002149086008460068E7
:100E700020F0030008600846006840F002000860A7
:100E80001A48406819494860084640684860084662
:100E9000406840F4806048600846406820F47C1058
:100EA00048600846406840F4E8104860084600681A
:100EB00040F08070086000BF0C48006800F00070CF
:100EC0000028F9D00948406820F00300074948602D
:100ED0000846406840F00200486000BF0348406890
:100EE00000F00C000828F9D10CBD000000100240F1
:100EF000002002407047000010B51348006840F021
:100F000001001149086008464068104908400E4930
:100F10004860084600680E4908400B4908600846CA
:100F2000006820F4802008600846406820F4FE0035
:100F300048604FF41F008860FFF768FF4FF00060C3
:100F40000449086010BD0000001002400000FFF8D6
:100F5000FFFFF6FE08ED00E021B1028842F0010239
:100F6000028004E002884FF6FE731A400280704748
:100F700001894FF6F87211400181704770B5002465
:100F800000220023058C4FF6FE7635400584028C46
:100F90008388048B4FF68F752C40B51E2C400D882E
:100FA0002C43751E2A400D892A434D882A43144D2F
:100FB000A8420BD0134DA84208D0134DA84205D02B
:100FC000124DA84202D0124DA84213D14FF6F77528
:100FD0002A404D892A434FF6FB752A408D882A43C3
:100FE0004FF6FF652B404FF6FF552B408D892B4365
:100FF000CD892B4383800483CD888586028470BD90
:10100000002C0140003401400040014000440140F8
:101010000048014070B5002400220023058C4FF6E3
:10102000EF7635400584028C8388048B48F6FF7583
:101030002C404FF6FF452C400D884FF6FF7606EA10
:1010400005252C434FF6DF752A400D8906EA051564
:101050002A434D8806EA05152A43154DA84202D0B9
:10106000144DA8421DD14FF67F752A404D894FF689
:10107000FF7606EA05152A434FF6BF752A408D888C
:1010800006EA05152A434FF6FF352B404FF2FF7550
:101090002B408D8906EA85052B43CD8906EA850517
:1010A0002B4383800483CD880587028470BD0000B4
:1010B000002C0140003401400021018041808180EA
:1010C000C180018141818181C181704781867047E2
:1010D00001877047002202881D4B98420ED01D4B9D
:1010E00098420BD0B0F1804F08D01B4B984205D0EE
:1010F0001A4B984202D01A4B984204D14FF68F7384
:101100001A404B881A43174B984207D0164B984207
:1011100004D04FF6FF431A40CB881A4302808B88D5
:1011200083850B8803850A4B98420BD0094B984264
:1011300008D00E4B984205D00D4B984202D00D4B73
:10114000984201D10B7A0386012383827047000005
:10115000002C014000340140000400400008004021
:10116000000C00400010004000140040004001400E
:10117000004401400048014000BFFEE702E008C80B
:10118000121F08C1002AFAD170477047002001E001
:1011900001C1121F002AFBD17047000008B5FFF7FC
:1011A00003FAFFF757FBFFF761FAFFF72BFE08235F
:1011B00066A200210846FFF79BFCFFF7B1FCFFF792
:1011C00013FA64490860C0E0FFF764FAF8B908232D
:1011D00061A210210020FFF78BFC62496248006881
:1011E000FEF7A0FF6049086008460068FFF7B0FD01
:1011F0000120FFF718F95B495B480068FEF7E4FF40
:101200005949086008460068FFF7A2FD97E0FFF71C
:10121000EBF956490860564909684E4A1268881A1F
:10122000FFF748F80546514909684A4A1268881A82
:10123000FFF740F806464F4801683046FEF7CAFF00
:1012400004462946FEF7F8FF4B4908600846006847
:10125000FFF739F8044608200423224600210090B5
:101260003A20FFF71FFC44480068FFF740F821F0E0
:101270000041044600224FF08043FFF74BF806D8A8
:1012800008233EA210210020FFF732FC57E03A4825
:101290000068FFF72CF821F00041044600224FF0CF
:1012A0008043FFF74FF82BD833480068FFF71FF84B
:1012B00021F0004104460022364BFFF72BF81FD8DF
:1012C000082335A210210020FFF712FC25492648EB
:1012D0000068FEF727FF2449086008460068FFF70A
:1012E00073FD0120FFF79FF81E491F480068FEF7B5
:1012F0006BFF1D49086008460068FFF765FD1EE0AA
:10130000082329A210210020FFF7F2FB15492B48E2
:101310000068FEF707FF2949086008460068FFF7E4
:1013200035FD0120FFF77FF80E4924480068FEF7DD
:101330004BFF2249086008460068FFF727FDFFF7CA
:10134000EFFB4FF4FA70FFF762F83DE7626F7474D9
:101350006C653A000800002063616E20626F74744F
:101360006C6500000000B44218000020000000205E
:10137000100000200C00002004000020656D707437
:101380007920202020202020202020202020202004
:101390000000000000004E40706C617374696320AF
:1013A000626F74746C650000676C61737320626FA8
:1013B00074746C6520202020000000001C000020B8
:1013C000000000000000000000000000000000001D
:1013D000000000F8000000000000003330000000B2
:1013E00000160E00160E00000000000000000000B5
:1013F00040C07840C0784000043F04043F0404002B
:10140000007088FC08300000001820FF211E00003A
:10141000F008F000E018000000211C031E211E004F
:1014200000F00888700000001E21232419272110D5
:10143000000000160E000000000000000000000088
:10144000000000E01804020000000007182040001F
:1014500000020418E000000000402018070000000F
:10146000404080F0804040000202010F0102020073
:10147000000000F0000000000101011F0101010057
:10148000000000000000000000B07000000000003C
:101490000000000000000000000101010101010145
:1014A00000000000000000000030300000000000DC
:1014B00000000000806018040060180601000000B1
:1014C00000E010080810E000000F102020100F00AE
:1014D000001010F8000000000020203F2020000035
:1014E000007008080888700000302824222130008D
:1014F00000300888884830000018202020110E0095
:101500000000C02010F8000000070424243F24003D
:1015100000F80888880808000019212020110E0012
:1015200000E0108888180000000F112020110E0024
:1015300000380808C83808000000003F000000001C
:101540000070880808887000001C222121221C00DD
:1015500000E010080810E0000000312222110F0006
:10156000000000C0C000000000000030300000009B
:10157000000000C0C0000000000080B0700000004B
:101580000000804020100800000102040810200024
:10159000404040404040400004040404040404006F
:1015A0000008102040800000002010080402010004
:1015B000007048080808F000000000303601000004
:1015C000C030C828E810E0000718272423140B00B7
:1015D0000000C038E0000000203C23020227382031
:1015E00008F8888888700000203F202020110E0015
:1015F000C03008080808380007182020201008000C
:1016000008F808080810E000203F202020100F00F4
:1016100008F88888E8081000203F202023201800C0
:1016200008F88888E8081000203F20000300000028
:10163000C03008080838000007182020221E0200C9
:1016400008F808000008F808203F210101213F2088
:10165000000808F8080800000020203F20200000B3
:1016600000000808F8080800C08080807F000000A3
:1016700008F888C028180800203F200126382000DC
:1016800008F8080000000000203F20202020300043
:1016900008F8F800F8F80800203F003F003F20005D
:1016A00008F830C00008F808203F200007183F0065
:1016B000E01008080810E0000F10202020100F0094
:1016C00008F808080808F000203F21010101000087
:1016D000E01008080810E0000F18242438504F00CC
:1016E00008F8888888887000203F2000030C30208C
:1016F00000708808080838000038202121221C00CA
:10170000180808F8080818000000203F2000000012
:1017100008F808000008F808001F202020201F00FB
:101720000878880000C83808000007380E0100005B
:10173000F80800F80008F800033C0700073C030025
:10174000081868808068180820302C03032C30208B
:101750000838C800C83808000000203F20000000FA
:1017600010080808C8380800203826212020180052
:10177000000000FE020202000000007F4040400026
:10178000000C30C000000000000000010638C0005E
:1017900000020202FE000000004040407F00000006
:1017A00000201008040810200000000000000000C5
:1017B0000000000000000000808080808080808029
:1017C000000204080000000000000000000000000B
:1017D00000008080808000000019242222223F2007
:1017E00008F8008080000000003F112020110E004A
:1017F0000000008080800000000E112020201100D9
:10180000000000808088F800000E112020103F208A
:101810000000808080800000001F2222222213000E
:10182000008080F0888888180020203F2020000059
:101830000000808080808000006B9494949360000E
:1018400008F8008080800000203F210000203F2019
:1018500000809898000000000020203F2020000019
:10186000000000809898000000C08080807F000009
:1018700008F8000080808000203F24022D302000E6
:10188000000808F8000000000020203F2020000091
:101890008080808080808000203F20003F20003FAB
:1018A000008080008080000000203F2100203F2039
:1018B0000000808080800000001F202020201F006A
:1018C000808000808000000080FFA12020110E0099
:1018D0000000008080808000000E112020A0FF808A
:1018E000808080008080800020203F212000010037
:1018F000000080808080800000332424242419008C
:10190000008080E0808000000000001F2020000098
:101910008080000000808000001F202020103F20D9
:10192000808080000080808000010E300806010069
:1019300080800080008080800F300C030C300F000E
:1019400000808000808080000020312E0E31200039
:10195000808080000080808080818E701806010069
:1019600000808080808080000021302C2221300087
:1019700000000000807C020200000000003F4040A8
:1019800000000000FF00000000000000FF00000059
:101990000002027C800000000040403F0000000088
:1019A0000080404080000080000000000001010035
:1019B0000000000000000000002F000000000700F1
:1019C000070000147F147F1400242A7F2A120023AA
:1019D00013086462003649552250000000070000D9
:1019E00000001C224100000041221C000014083E9F
:1019F00008140008083E0808000000A06000000865
:101A000008080808000060600000002010080402B8
:101A1000003E5149453E0000427F40000042615176
:101A20004946002141454B31001814127F10002710
:101A300045454539003C4A494930000171090503D3
:101A400000364949493600064949291E0000363604
:101A50000000000056360000000814224100001467
:101A60001414141400004122140800020151090644
:101A7000003E4955592E007C1211127C007F4949C5
:101A80004936003E41414122007F4141221C007FF6
:101A900049494941007F09090901003E4149497A04
:101AA000007F0808087F0000417F4100002040417E
:101AB0003F01007F08142241007F40404040007FEA
:101AC000020C027F007F0408107F003E4141413E2E
:101AD000007F09090906003E4151215E007F091976
:101AE00029460046494949310001017F0101003F73
:101AF0004040403F001F2040201F003F4038403FF3
:101B00000063140814630007087008070061514956
:101B1000454300007F4141000002040810200000FE
:101B200041417F0000040201020400404040404067
:101B3000000001020400002054545478007F4844FF
:101B4000443800384444442000384444487F003836
:101B50005454541800087E0901020018A4A4A47C5F
:101B6000007F080404780000447D40000040808429
:101B70007D00007F102844000000417F4000007C71
:101B800004180478007C080404780038444444387D
:101B900000FC242424180018242418FC007C0804C9
:101BA000040800485454542000043F444020003CA2
:101BB0004040207C001C2040201C003C4030403C29
:101BC000004428102844001CA0A0A07C00446454B9
:101BD0004C440000087F41000000007F000000002E
:101BE000417F0800000804081008EFBC8C000000CA
:101BF00000000000000000000000000000000000E5
:101C00005838000000000000000000000000E380E1
:101C10008200000000000000000000000000000042
:101C2000000000001824241800000000000000003C
:101C30000000E5BAA6000000FC242424FC2526248C
:101C4000FC242424040040308F80844C5525252515
:101C5000554C80808000EFBC9A000000000000001E
:101C60000000000000000000000000003636000008
:101C700000000000000000000000E284830006096C
:101C800009E6F80C040202020202041E0000000031
:101C900000071F3020404040404020100000E59CDD
:101CA0009F0000004040404040FF40404040400016
:101CB0000000404040404040407F40404040404065
:101CC0004000E5A3A4001010FF100082BAEABA8316
:101CD000BAEABA82000008180F04484A2AFF8A4A62
:101CE0001A2F5A8A8800E6B9BF001060028C00FEE5
:101CF000929292929292FE00000004047E01444867
:101D0000507F40407F5048444000E5BAA6000000A4
:101D1000FC242424FC252624FC2424240400403014
:101D20008F80844C55252525554C80808000E5B555
:101D30008C008080EE888888E88F088878484E403C
:101D4000C00000007F2424247F008140300F3041F8
:101D50008000E585A500000000000001E21CE00015
:101D6000000000000000804020100C030000000371
:101D70000C3040808000E5BC8F0010109090909057
:101D8000901010FF101011161000002060203F105E
:101D9000101000030C102040F800E9878D0010108F
:101DA00014D4545454FC525252D3121010004040D8
:101DB00050575555557F5555555750404000E98768
:101DC0008F00202020BEAAAAAAAAAAAAAABE2020C2
:101DD0002000008080AFAAAAAAFFAAAAAAAF80808A
:101DE000000000000000FF01010131090909098913
:101DF0007101010101FFFF808080808080968180D9
:101E00008080808080FFE793B6000009FA0808FA16
:101E1000090002FE2222E202000081611F0101FF8F
:101E200001007F2011027F80F000E5AD90008082EC
:101E30008282828282E2A2928A8682808000000070
:101E400000000040807F0000000000000000E7A7C5
:101E50008D002424A4FE232200F01010FF1010F0A7
:101E60000000080601FF010600070202FF02020748
:101E70000000E7B1BB0000101092543010FF10308A
:101E80005492101000008485454424140C060C1450
:101E9000244445848400FF01818181FD8991A1C191
:101EA000FD81818101FFFF808080809F8884828105
:101EB0009F80808080FF0000D81E00080000002066
:101EC000200000007C110008F81E000820000020FF
:101ED000000800008C110008000000000000000055
:101EE000000000000000C842205A7B0000000000F3
:081EF0000000000000000000EA
:04000005080000ED02
:00000001FF
